:0400000081314F29D2
:10000800803120007F08FC000130F9007908AA0738
:1000180022008C0120008C19122813281E28A60102
:10002800A801FD01AA01A901063022008C00FD30BB
:100038008D001E2820000C1A222823285E28210063
:10004800910120002A08F9007908F0000030823177
:100058008E2280317D08F9007908F0000130823164
:100068008E22803120002908F9007908F00002303A
:1000780082318E22803120002808F9007908F000AA
:10008800033082318E22803120002608F900790859
:10009800F000043082318E228031063022008C003C
:1000A800FD308D00572820000C1E5B285C2857283F
:1000B8005E285E283C302A02031C63286428BF2877
:1000C8000130F9007908FD07AA01A9010F30F000F5
:1000D8000030F1007D08F900FA017908F2007A0889
:1000E800F3008131BE21803171087004031D7D2821
:1000F8007E2883280530F90079082000A7000F30F2
:100108007D02031C882889288E280430F900790884
:100118002000A9001E307D02031C932894289928EA
:100128000630F90079082000A9002D307D02031C53
:100138009E289F28A4280730F90079082000A900E4
:100148003C307D02031CA928AA28BF28FD012000F5
:10015800A9010130F9007908A80764302802031CB6
:10016800B628B728BF280130F9007908A607A801E2
:10017800BF28BF28BF280A30F0000030F100200057
:100188002808F900FA017908F2007A08F3008131A9
:10019800522180317008E03E82310A008031FF3AF6
:1001A800FB007B082000AB000A30F0000030F100B3
:1001B8002808F900FA017908F2007A08F300813179
:1001C800BE2180317008E03E82310A008031FF3A5A
:1001D800FB007B082000AD002908F9000530F9353F
:1001E800890BF328260809071F397904FF3AFA0012
:1001F8007A08AC002708031D022905290130A70247
:100208004A29FF3022008D0001308C00FD308D001E
:10021800FF308D005430F900F90B1029FB30220013
:100228008D00FF308D004630F900F90B1929640064
:10023800F73022008D00FF308D003B30F900F90BBC
:1002480023292629EF3022008D00FF308D0033301E
:10025800F900F90B2D296400DF3022008D00FF30F2
:100268008D002E30F900F90B3729BF3022008D00A0
:10027800FF308D002B30F900F90B402964007F30E6
:1002880022008D008C01FF308D004A29200091103A
:100298007C08FF00090088018231EA2AF601F11F73
:1002A800562957296029F009F109F00A0319F10ABA
:1002B800F6010314F60D6029F31F632964296E29DA
:1002C800F209F309F20A0319F30A0130F400740879
:1002D800F6066E29F701F8017108700403197529EB
:1002E8007629AC29F5010314F50D84290130F03580
:1002F800F10D890B7B290130F4007408F507842976
:10030800F11F872988297A298A298A290130F7350E
:10031800F80D890B8B2971087302031D9529700844
:100328007202031C982999299F297008F202710802
:10033800F33B77149F290130F136F00C890BA02983
:100348000130F502031DA929AA298A29AC29AC295B
:100358007608031DB029B629F709F809F70A031921
:10036800F80AB6297808F101F1077708F001F007D3
:10037800BD290800F601F31FC229C329CC29F209B7
:10038800F309F20A0319F30AF6010314F60DCC294E
:10039800F11FCF29D029D629F009F109F00A03194C
:1003A800F10AD629710870040319DB29DC290C2A03
:1003B800F5010314F50DEA290130F035F10D890B2B
:1003C800E1290130F4007408F507EA29F11FED2945
:1003D800EE29E029F029F02971087302031DF62996
:1003E80070087202031CF929FA29FF297008F20221
:1003F8007108F33BFF290130F136F00C890B002A14
:100408000130F502031D092A0A2AF0290C2A0C2AB0
:100418007608031D102A162AF209F309F20A0319AD
:10042800F30A162A7308F101F1077208F001F007C0
:100438001D2A080021008D01F8308C0023008C0152
:100448008D0122008C01FF308D0000308231BC22EA
:1004580082312000A4002408AA0001308231BC2285
:1004680082312000A4002408FD0002308231BC2221
:1004780082312000A4002408A90003308231BC2264
:1004880082312000A4002408A80004308231BC2254
:1004980082312000A4002408A60002302100910027
:1004A800C0308B007F3020009C0007309B00073055
:1004B800A4002408A700080082311E228231642A81
:1004C80020002708031D692A642A2B0822008D00B2
:1004D80004308C0005302000A500A50B712A2200ED
:1004E8008C0120002D0822008D0002308C00053080
:1004F8002000A500A50B7E2A22008C0120002C08D4
:1005080022008D0001308C008C01642A642A642A40
:1005180081314F29F300902A23009518942A952AAF
:10052800902A962A7308F100F20171089100720866
:100538009200700893003F30F10071089505200083
:1005480003108B1FA82AA92AAA2A03148B13230095
:10055800151555309600AA309600951415112000EF
:10056800031CB72AB82ABB2A8B17BB2ABB2A080048
:100578002000A300640023009518C32AC42ABE2AB9
:10058800C52A20002308A000A1012008230091000B
:1005980020002108230092003F302000A2002208FA
:1005A8002300950515140310151803140030093D90
:1005B8001308DE2A08000034FC346034DA34F234DC
:1005C8006634B634BE34E034FE34F634AB01AC01E4
:0805D800AD0120008231602A10
:020000040001F9
:04000E00E0DFFFDE52
:00000001FF
