:040000008131112910
:10000800803120007F08FC000130F9007908AA0738
:1000180022008C0120008C19122813281E28A60102
:10002800A801FD01AA01A901063022008C00FD30BB
:100038008D001E2820000C1A222823285E28210063
:10004800910120002A08F9007908F0000030823177
:10005800502280317D08F9007908F00001308231A2
:100068005022803120002908F9007908F000023078
:1000780082315022803120002808F9007908F000E8
:10008800033082315022803120002608F900790897
:10009800F0000430823150228031063022008C007A
:1000A800FD308D00572820000C1E5B285C2857283F
:1000B8005E285E283C302A02031C63286428BF2877
:1000C8000130F9007908FD07AA01A9010F30F000F5
:1000D8000030F1007D08F900FA017908F2007A0889
:1000E800F30081318021803171087004031D7D285F
:1000F8007E2883280530F90079082000A7000F30F2
:100108007D02031C882889288E280430F900790884
:100118002000A9001E307D02031C932894289928EA
:100128000630F90079082000A9002D307D02031C53
:100138009E289F28A4280730F90079082000A900E4
:100148003C307D02031CA928AA28BF28FD012000F5
:10015800A9010130F9007908A80764302802031CB6
:10016800B628B728BF280130F9007908A607A801E2
:10017800BF28BF28BF280A30F0000030F100200057
:100188002808F900FA017908F2007A08F3008131A9
:10019800142180317008A23E82310A008031FF3A72
:1001A800FB007B082000AB000A30F0000030F100B3
:1001B8002808F900FA017908F2007A08F300813179
:1001C800802180317008A23E82310A008031FF3AD6
:1001D800FB007B082000AD002908F9000530F9353F
:1001E800890BF328260809071F397904FF3AFA0012
:1001F8007A08AC002708031D022905290130A70247
:100208000C29063022008C00FE308D008C010C2950
:10021800200091107C08FF00090088018231AC2A77
:10022800F601F11F182919292229F009F109F00A04
:100238000319F10AF6010314F60D2229F31F2529E3
:1002480026293029F209F309F20A0319F30A0130C1
:10025800F4007408F6063029F701F80171087004F3
:100268000319372938296E29F5010314F50D462994
:100278000130F035F10D890B3D290130F400740887
:10028800F5074629F11F49294A293C294C294C29B7
:100298000130F735F80D890B4D2971087302031DDC
:1002A800572970087202031C5A295B2961297008B2
:1002B800F2027108F33B771461290130F136F00C32
:1002C800890B62290130F502031D6B296C294C2921
:1002D8006E296E297608031D72297829F709F8090D
:1002E800F70A0319F80A78297808F101F10777085D
:1002F800F001F0077F290800F601F31F84298529FA
:100308008E29F209F309F20A0319F30AF601031414
:10031800F60D8E29F11F912992299829F009F109E2
:10032800F00A0319F10A98297108700403199D2924
:100338009E29CE29F5010314F50DAC290130F035BD
:10034800F10D890BA3290130F4007408F507AC29D5
:10035800F11FAF29B029A229B229B2297108730265
:10036800031DB82970087202031CBB29BC29C129C6
:100378007008F2027108F33BC1290130F136F00C24
:10038800890BC2290130F502031DCB29CC29B229DA
:10039800CE29CE297608031DD229D829F209F309D6
:1003A800F20A0319F30AD8297308F101F107720850
:1003B800F001F007DF29080021008D01F8308C00DA
:1003C80023008C018D0122008C01FF308D0000304C
:1003D80082317E2281312000A4002408AA00013045
:1003E80082317E2281312000A4002408FD000230E1
:1003F80082317E2281312000A4002408A900033024
:1004080082317E2281312000A4002408A800043013
:1004180082317E2281312000A4002408A600023007
:1004280021009100C0308B007F3020009C000730F5
:100438009B000730A4002408A70008008131E021B0
:100448008231262A20002708031D2B2A262A2B085A
:1004580022008D0004308C0005302000A500A50B7B
:10046800332A22008C0120002D0822008D00023042
:100478008C0005302000A500A50B402A22008C0125
:1004880020002C0822008D0001308C008C01262AC7
:10049800262A262A81311129F300522A2300951889
:1004A800562A572A522A582A7308F100F20171086D
:1004B800910072089200700893003F30F1007108B3
:1004C8009505200003108B1F6A2A6B2A6C2A0314D7
:1004D8008B132300151555309600AA3096009514F5
:1004E80015112000031C792A7A2A7D2A8B177D2A68
:1004F8007D2A08002000A300640023009518852A9F
:10050800862A802A872A20002308A000A101200823
:100518002300910020002108230092003F30200092
:10052800A2002208230095051514031015180314BA
:100538000030093D1308A02A08000034FC34603458
:10054800DA34F2346634B634BE34E034FE34F63489
:0C055800AB01AC01AD0120008231222A71
:020000040001F9
:04000E00E0DFFFDE52
:00000001FF
