:040000008131102911
:10000800803120007F08FC000130F9007908AA0738
:1000180022008C0120008C19122813281E28A60102
:10002800A801FD01AA01A901063022008C00FD30BB
:100038008D001E2820000C1A222823285E28210063
:10004800910120002A08F9007908F0000030823177
:100058004F2280317D08F9007908F00001308231A3
:100068004F22803120002908F9007908F000023079
:1000780082314F22803120002808F9007908F000E9
:10008800033082314F22803120002608F900790898
:10009800F000043082314F228031063022008C007B
:1000A800FD308D00572820000C1E5B285C2857283F
:1000B8005E285E283C302A02031C63286428BE2878
:1000C8000130F9007908FD07AA01A9010F30F000F5
:1000D8000030F1007D08F900FA017908F2007A0889
:1000E800F30081317F21803171087004031D7D2860
:1000F8007E2883280530F90079082000A7000F30F2
:100108007D02031C882889288E280430F900790884
:100118002000A9001E307D02031C932894289928EA
:100128000630F90079082000A9002D307D02031C53
:100138009E289F28A4280730F90079082000A900E4
:100148003C307D02031CA928AA28BE28FD010130E5
:10015800F90079082000A80764302802031CB52894
:10016800B628BE280130F9007908A607A801BE28DC
:10017800BE28BE280A30F0000030F1002000280810
:10018800F900FA017908F2007A08F30081311321A5
:1001980080317008A13E82310A008031FF3AFB00AD
:1001A8007B082000AB000A30F0000030F10028087E
:1001B800F900FA017908F2007A08F30081317F2109
:1001C80080317008A13E82310A008031FF3AFB007D
:1001D8007B082000AD002908F9000530F935890BA6
:1001E800F228260809071F397904FF3AFA007A0825
:1001F800AC002708031D012904290130A7020B2997
:10020800063022008C00FE308D008C010B29200066
:1002180091107C08FF00090088018231AB2AF601A1
:10022800F11F172918292129F009F109F00A0319E2
:10023800F10AF6010314F60D2129F31F24292529B3
:100248002F29F209F309F20A0319F30A0130F4001D
:100258007408F6062F29F701F801710870040319CC
:10026800362937296D29F5010314F50D4529013083
:10027800F035F10D890B3C290130F4007408F507BD
:100288004529F11F482949293B294B294B29013088
:10029800F735F80D890B4C2971087302031D56298F
:1002A80070087202031C59295A2960297008F20241
:1002B8007108F33B771460290130F136F00C890B93
:1002C80061290130F502031D6A296B294B296D2923
:1002D8006D297608031D71297729F709F809F70AA6
:1002E8000319F80A77297808F101F1077708F0016E
:1002F800F0077E290800F601F31F832984298D2938
:10030800F209F309F20A0319F30AF6010314F60DC8
:100318008D29F11F902991299729F009F109F00AEF
:100328000319F10A97297108700403199C299D295A
:10033800CD29F5010314F50DAB290130F035F10D88
:10034800890BA2290130F4007408F507AB29F11FC5
:10035800AE29AF29A129B129B12971087302031D5A
:10036800B72970087202031CBA29BB29C029700872
:10037800F2027108F33BC0290130F136F00C890B09
:10038800C1290130F502031DCA29CB29B129CD297C
:10039800CD297608031DD129D729F209F309F20AD4
:1003A8000319F30AD7297308F101F1077208F0015C
:1003B800F007DE29080021008D01F8308C002300A9
:1003C8008C018D0122008C01FF308D0000308231BC
:1003D8007D2281312000A4002408AA000130823146
:1003E8007D2281312000A4002408FD0002308231E2
:1003F8007D2281312000A4002408A9000330823125
:100408007D2281312000A4002408A8000430823114
:100418007D2281312000A4002408A600023021009A
:100428009100C0308B007F3020009C0007309B007B
:100438000730A4002408A70008008131DF21823199
:10044800252A20002708031D2A2A252A2B082200EE
:100458008D0004308C0005302000A500A50B322A41
:1004680022008C0120002D0822008D0002308C0013
:1004780005302000A500A50B3F2A22008C01200092
:100488002C0822008D0001308C008C01252A252A99
:10049800252A81311029F300512A23009518552A5D
:1004A800562A512A572A7308F100F201710891005F
:1004B80072089200700893003F30F10071089505AA
:1004C800200003108B1F692A6A2A6B2A03148B13D6
:1004D8002300151555309600AA309600951415116D
:1004E8002000031C782A792A7C2A8B177C2A7C2AEC
:1004F80008002000A300640023009518842A852A98
:100508007F2A862A20002308A000A10120082300B2
:10051800910020002108230092003F302000A20013
:10052800220823009505151403101518031400302C
:10053800093D13089F2A08000034FC346034DA347B
:10054800F2346634B634BE34E034FE34F634AB01EB
:0A055800AC01AD0120008231212A20
:020000040001F9
:04000E00E0DFFFDE52
:00000001FF
