:040000008031F22831
:10000800803120007F08FC000130F9007908AA0738
:1000180022008C0120008C19122813281E28A60102
:10002800A801FD01AA01A901063022008C00FD30BB
:100038008D001E2820000C1A222823285E28210063
:10004800910120002A08F9007908F0000030823177
:10005800312280317D08F9007908F00001308231C1
:100068003122803120002908F9007908F000023097
:1000780082313122803120002808F9007908F00007
:10008800033082313122803120002608F9007908B6
:10009800F0000430823131228031063022008C0099
:1000A800FD308D00572820000C1E5B285C2857283F
:1000B8005E285E283C302A02031C63286428A12895
:1000C8000130F9007908FD07AA01A9010F307D0266
:1000D800031C6F28702874280430F9007908A900D7
:1000E8001E307D02031C79287A287E280630F90004
:1000F8007908A9002D307D02031C832884288828CC
:100108000730F9007908A9003C307D02031C8D28CE
:100118008E28A128FD010130F9007908A80764306C
:100128002802031C98289928A1280130F900790889
:10013800A607A801A128A128A1280A30F0000030AC
:10014800F1002808F900FA017908F2007A08F300AA
:100158008031F52080317008833E82310A00803179
:10016800FF3AFB007B082000AB000A30F0000030AB
:10017800F1002808F900FA017908F2007A08F3007A
:100188008131612180317008833E82310A008031DB
:10019800FF3AFB007B082000AD002908F900053074
:1001A800F935890BD428260809071F397904FF3A3D
:1001B800FA007A08AC002708031DE328E628013076
:1001C800A702ED28063022008C00FE308D008C013D
:1001D800ED28200091107C08FF0009008801823179
:1001E8008D2AF601F11FF928FA280329F009F109E7
:1001F800F00A0319F10AF6010314F60D0329F31F97
:10020800062907291129F209F309F20A0319F30A41
:100218000130F4007408F6061129F701F801710895
:1002280070040319182919294F29F5010314F50D2C
:1002380027290130F035F10D890B1E290130F40012
:100248007408F5072729F11F2A292B291D292D298B
:100258002D290130F735F80D890B2E297108730205
:10026800031D382970087202031C3B293C294229C6
:100278007008F2027108F33B771442290130F13615
:10028800F00C890B43290130F502031D4C294D2937
:100298002D294F294F297608031D53295929F70974
:1002A800F809F70A0319F80A59297808F101F1073A
:1002B8007708F001F00760290800F601F31F6529A7
:1002C80066296F29F209F309F20A0319F30AF601FC
:1002D8000314F60D6F29F11F722973297929F00982
:1002E800F109F00A0319F10A792971087004031950
:1002F8007E297F29AF29F5010314F50D8D290130D9
:10030800F035F10D890B84290130F4007408F507E4
:100318008D29F11F902991298329932993297108FF
:100328007302031D992970087202031C9C299D29D8
:10033800A2297008F2027108F33BA2290130F136B4
:10034800F00C890BA3290130F502031DAC29AD2956
:100358009329AF29AF297608031DB329B929F209D2
:10036800F309F20A0319F30AB9297308F101F1072D
:100378007208F001F007C029080021008D01F8304B
:100388008C0023008C018D0122008C01FF308D0030
:10039800003082315F2281312000A4002408AA00A5
:1003A800013082315F2281312000A4002408FD0041
:1003B800023082315F2281312000A4002408A90084
:1003C800033082315F2281312000A4002408A80074
:1003D800043082315F2281312000A4002408A60065
:1003E800023021009100C0308B007F3020009C003B
:1003F80007309B000730A4002408A70008008131BB
:10040800C1218231072A20002708031D0C2A072A48
:100418002B0822008D0004308C0005302000A50038
:10042800A50B142A22008C0120002D0822008D0023
:1004380002308C0005302000A500A50B212A2200DF
:100448008C0120002C0822008D0001308C008C01CA
:10045800072A072A072A8031F228F300332A2300C3
:100468009518372A382A332A392A7308F100F201F5
:100478007108910072089200700893003F30F100F3
:1004880071089505200003108B1F4B2A4C2A4D2A12
:1004980003148B132300151555309600AA309600C7
:1004A800951415112000031C5A2A5B2A5E2A8B1703
:1004B8005E2A5E2A08002000A30064002300951825
:1004C800662A672A612A682A20002308A000A10159
:1004D80020082300910020002108230092003F30CB
:1004E8002000A200220823009505151403101518F2
:1004F80003140030093D1308812A08000034FC3435
:100508006034DA34F2346634B634BE34E034FE345F
:0E051800F634AB01AC01AD0120008231032AA4
:020000040001F9
:04000E00E0DFFFDE52
:00000001FF
